:020000040800F2
:1000000000000220E5120008F90B0008FB0B0008B5
:10001000FD0B0008FF0B0008010C000800000000A9
:1000200000000000000000000000000091620008D5
:10003000030C00080000000031630008D95F0008CD
:100040003513000835130008351300083513000870
:100050003513000835130008351300083513000860
:100060003513000835130008351300083513000850
:10007000050C000835130008351300083513000877
:10008000150C0008250C000835130008351300086E
:100090003513000835130008351300083513000820
:1000A0003513000835130008351300083513000810
:1000B0003513000835130008351300083513000800
:1000C000351300083513000835130008350C0008F7
:1000D00035130008450C0008550C0008650C000895
:1000E00035130008351300083513000835130008D0
:1000F00035130008351300083513000835130008C0
:1001000035130008351300083513000835130008AF
:10011000351300083513000835130008750C000866
:1001200035130008850C0008950C0008A50C000884
:10013000351300083513000835130008351300087F
:10014000351300083513000835130008351300086F
:10015000B50C0008C50C0008D50C0008E50C00081B
:10016000351300083513000835130008351300084F
:10017000351300083513000835130008000000008F
:080180003513000835130008D7
:1001900053B94AB9002908BF00281CBF4FF0FF31EE
:1001A0004FF0FF3000F00CB8ADF1080C6DE904CE53
:1001B00008F0BAF9DDF804E0DDE9022304B0704785
:1001C000704700BF844641EA000313F003036DD17A
:1001D000403A41D351F8043B40F8043B51F8043B0A
:1001E00040F8043B51F8043B40F8043B51F8043B11
:1001F00040F8043B51F8043B40F8043B51F8043B01
:1002000040F8043B51F8043B40F8043B51F8043BF0
:1002100040F8043B51F8043B40F8043B51F8043BE0
:1002200040F8043B51F8043B40F8043B51F8043BD0
:1002300040F8043B51F8043B40F8043B51F8043BC0
:1002400040F8043B51F8043B40F8043B51F8043BB0
:1002500040F8043B403ABDD2303211D351F8043B50
:1002600040F8043B51F8043B40F8043B51F8043B90
:1002700040F8043B51F8043B40F8043B103AEDD2FF
:100280000C3205D351F8043B40F8043B043AF9D250
:10029000043208D0D2071CBF11F8013B00F8013B23
:1002A00001D30B8803806046704700BF082A13D330
:1002B0008B078DD010F003038AD0C3F10403D21A48
:1002C000DB071CBF11F8013B00F8013B80D331F87C
:1002D000023B20F8023B7BE7043AD9D3013A11F8FC
:1002E000013B00F8013BF9D20B7803704B78437067
:1002F0008B788370604670470348044B834202D07A
:10030000034B03B1184770470C0600200C06002071
:10031000000000000548064B1B1AD90F01EBA30192
:10032000491002D0034B03B1184770470C06002058
:100330000C0600200000000010B5064C237843B9DD
:10034000FFF7DAFF044B13B10448AFF30080012339
:10035000237010BD1006002000000000F09A000875
:1003600008B5054B1BB105490548AFF30080BDE852
:100370000840FFF7CFBF00BF0000000014060020B8
:10038000F09A00080368D86A824201D9DA6A92B208
:100390000C290FD8DFE801F0070E0E0E090E0E0E25
:1003A0000B0E0E0E0D005A6370479A637047DA63A6
:1003B00070471A647047000082B0084B5B68019375
:1003C000019A074B1B689A4203D2064A136801330D
:1003D0001360019A024B1A6002B07047001000E0EF
:1003E0005006002054060020104AD2F8FC3043F09A
:1003F0008073C2F8FC300E4B002159601A6842F03D
:1004000001021A600B4B03FB00F00B4B18600B4B07
:10041000A3FB00239B090A4A13600A4BA3FB00308D
:10042000800C094B1860094B1960704700ED00E023
:10043000001000E040420F0060060020D34D621023
:100440005C06002083DE1B43580600205406002073
:1004500000B52DED028B83B00D4B5B680193019BC2
:1004600002689B1A07EE903AF8EE677A094B93ED13
:10047000007AB8EE477A87EE878A019B0360FFF720
:100480009BFFB0EE480A03B0BDEC028B5DF804FBA5
:10049000001000E0600600202DE9F04182B0294BF9
:1004A0005B680193FFF788FF274B1C6800266508EF
:1004B000E3071B1B65F10005DB186D411C1945F1B5
:1004C0000005019BE41845F10005204B1C605D60B0
:1004D0001F4BD3F800804246334620462946FFF79B
:1004E00057FE07461B4B186059604246334620466C
:1004F0002946FFF74DFE10461C461546164B1A605E
:100500005C60DFF86480C8F80070144B1F683A46DE
:1005100033462146FFF73CFE80B2A8F8040000FBFA
:1005200007F7E81B64F100010D4B186059600D4B93
:100530001A683346FFF72CFEA8F8060002B0BDE8A3
:10054000F08100BF001000E05406002048060020A3
:100550006006002040060020380600205C060020CF
:1005600030060020580600206406002008B5FFF77A
:1005700093FF0E4B9A8807EE902AF8EEE77A9FEDEC
:100580000C7A67EE877A93ED007AB8EE470A30EE80
:10059000270ADB8807EE903AF8EEE77A9FED057AB6
:1005A00067EE877A30EE270A08BD00BF6406002098
:1005B0006F12833ABD3786350A4B5968094B5B6821
:1005C0005B1A094AD2ED007AF8EE677A67EE807A14
:1005D00007EE103AB8EE477AB4EEE77AF1EE10FA89
:1005E000ECD47047001000E06006002010B582B027
:1005F000002400942E4B1A6B42F480021A631A6B8B
:1006000002F480020092009A01941A6B42F40012E4
:100610001A631B6B03F400130193019B224605210F
:100620000C2003F039FD0C2003F046FD2246052185
:10063000102003F031FD102003F03EFD224605217D
:10064000112003F029FD112003F036FD224605217B
:10065000392003F021FD392003F02EFD224605212B
:100660003A2003F019FD3A2003F026FD2246052129
:100670003B2003F011FD3B2003F01EFD2246052127
:10068000442003F009FD442003F016FD2246052115
:10069000452003F001FD452003F00EFD2246052113
:1006A000462003F0F9FC462003F006FD02B010BD21
:1006B0000038024008B5012005F027FDFBE708B52A
:1006C00007F02EFB4FF4FA7005F01FFDF8E708B5B0
:1006D00007F01CFB4FF47A7005F017FDF8E708B53A
:1006E00007F08CFC07F03AFE012005F00EFDF9E75B
:1006F00008B50E4A00210E4805F0A8FC0D4B186005
:100700000D4A00210D4805F0A1FC0D4B18600D4A63
:1007100000210D4805F09AFC0C4B18600C4A002192
:100720000C4805F093FC0C4B186008BDC89B0008F2
:10073000B506000878060020A49B0008BF06000844
:1007400074060020809B0008CF0600087006002079
:100750005C9B0008DF0600086C0600202DE9F041D4
:100760008CB000240794089409940A940B94009484
:100770003C4B1A6B42F040021A631A6B02F04002C3
:100780000092009A01941A6B42F002021A631A6BEB
:1007900002F002020192019A02941A6B42F00102E5
:1007A0001A631A6B02F001020292029A03941A6B06
:1007B00042F008021A631A6B02F008020392039ACD
:1007C00004941A6B42F004021A631A6B02F00402DA
:1007D0000492049A05941A6B42F080021A631A6B11
:1007E00002F080020592059A06941A6B42F02002EC
:1007F0001A631B6B03F020030693069BDFF87080DF
:1008000001224FF4C051404603F072FF164F0122FF
:100810001021384603F06CFF144E01221146304679
:1008200003F066FF4FF4C053079301250895099420
:100830000A9407A9404603F065FE10230793089524
:1008400009940A9407A9384603F05CFE07950895B9
:1008500009940A9407A9304603F054FE0CB0BDE891
:10086000F08100BF00380240000002400004024056
:10087000001C024008B50268034B9A4200D008BD34
:1008800003F09EFBFBE700BF0014004072B6FEE7DA
:1008900000B595B03022002108A808F069FA0023BD
:1008A000039304930593069307930193204A116CD5
:1008B00041F080511164126C02F080520192019A51
:1008C00002931C4B1A6842F480421A601B6803F4BE
:1008D00080430293029B012308934FF480330993D2
:1008E00002230E934FF480020F9206221092A82248
:1008F000119212930423139308A803F009FF98B9E7
:100900000F23039302230493002305934FF4A05372
:1009100006934FF480530793052103A804F048F988
:1009200020B915B05DF804FBFFF7B0FFFFF7AEFF8D
:10093000003802400070004008B503F027FBFFF7C5
:10094000A7FFFFF70BFFFFF751FE00F01DF800F0C7
:1009500047FA00F07FFA00F0B9FA00F0D7FA00F099
:1009600095FAA820FFF740FD0121064801F0B8F8EC
:100970000028F9D105F03CFBFFF7BAFE05F04AFB71
:10098000FEE700BF3C07002008B50F480F4B03608F
:100990004FF48273436000238360C36002220261CC
:1009A000012242614FF4007282611022C26103622F
:1009B000436283620A23C36204F086FA00B908BD69
:1009C000FFF764FFFBE700BF3C0700200030014059
:1009D0002DE9F04389B00023039304930593069314
:1009E00007930268434B9A4202D009B0BDE8F083F6
:1009F00004460025009503F584335A6C42F4805276
:100A00005A645A6C02F480520092009A01951A6B53
:100A100042F002021A631A6B02F002020192019A7A
:100A200002951A6B42F001021A631B6B03F001037B
:100A30000293029B182303934FF00209CDF8109004
:100A40004FF00108CDF81480032706970526079676
:100A500003A9294803F056FD80230393CDF8109095
:100A6000CDF814800697079603A9244803F04AFDA1
:100A70002348244B03604FF0C06343608560C5602A
:100A80004FF48063036145618561C5614FF4403374
:100A90000362456203F084FB28BB194BE3649C634B
:100AA00019481A4B03604FF0C063436040238360D2
:100AB0000023C3604FF48062026143618361C361BC
:100AC0004FF400320262436203F06AFB70B90E4BCE
:100AD000A3649C6300220521232003F0DDFA232078
:100AE00003F0EAFA81E7FFF7D1FED6E7FFF7CEFE83
:100AF000EDE700BF0030014000040240000002406A
:100B0000DC060020406402407C060020586402405D
:100B100000B583B0002200920D4B596C41F4804126
:100B20005964596C01F48041009100990192196C4B
:100B300041F0805119641B6C03F080530193019BB9
:100B40000F216FF0010003F0A7FA03B05DF804FB7A
:100B50000038024030B589B0044600230193214B90
:100B60001A6C42F020021A641B6C03F020030193FC
:100B7000019B02A903A804F0F1F8069BCBB904F08D
:100B8000CDF80346184AA2FB03239B0C013B1748F0
:100B9000174A026040F2E732C260436000230361FB
:100BA0008360836104F0A8FD054630B1284609B092
:100BB00030BD04F0B3F84300E4E70C4804F032FC25
:100BC00005460028F2D1372003F076FA0F2C01D920
:100BD0000125EBE700222146372003F05DFA054BA3
:100BE0001C60E3E70038024083DE1B4394070020CB
:100BF00000140040A4000020FEE7FEE7FEE7FEE749
:100C0000FEE7704708B5024803F08EFB08BD00BF41
:100C1000E808002008B5024803F086FB08BD00BFC5
:100C2000A809002008B5024803F07EFB08BD00BFFC
:100C30004809002008B5024804F0C2FA08BD00BF08
:100C40003C07002008B5024805F088F808BD00BF41
:100C5000940B002008B5024805F080F808BD00BFDD
:100C6000500B002008B5024805F078F808BD00BF19
:100C70000C0B002008B5024804F01DFC08BD00BFA5
:100C80009407002008B5024803F04EFB08BD00BFE2
:100C90008808002008B5024803F046FB08BD00BFE5
:100CA000DC06002008B5024803F03EFB08BD00BF8B
:100CB0007C06002008B5024803F036FB08BD00BFE3
:100CC000680A002008B5024803F02EFB08BD00BFEB
:100CD0002808002008B5024803F026FB08BD00BF25
:100CE000080A002008B5024805F038F808BD00BF22
:100CF000C80A002010B503460C4A0D490D4800688B
:100D000040B10C4800680344521A934206D8094A7D
:100D1000136010BD0748084C0460F2E708F0C2F801
:100D20000C2303604FF0FF30F3E700BF0000022008
:100D300000040000DC070020885F0020034AD2F88E
:100D4000883043F47003C2F88830704700ED00E04B
:100D50000268094B9A4200D0704782B00023019389
:100D6000064B5A6C42F400325A645B6C03F4003355
:100D70000193019B02B070470044014000380240DB
:100D800000B587B000230193029303930493059366
:100D90000268104B9A4202D007B05DF804FB0023B2
:100DA00000930D4B1A6B42F020021A631B6B03F089
:100DB00020030093009B402301930223029301220E
:100DC000039204930323059301A9044803F09AFBBB
:100DD000E2E700BF00440140003802400014024036
:100DE00000B589B000230193029303930493059304
:100DF000069307931548164A0260532242608360A7
:100E000040F2CF72C2600361836104F075FCA0B947
:100E10000E4804F09DFC98B96023019300220292D1
:100E20000392059201A9094804F0F6FC58B9074855
:100E3000FFF7A6FF09B05DF804FBFFF727FDE7E722
:100E4000FFF724FDE8E7FFF721FDF0E7E0070020CA
:100E50000044014008B50A480A4B03600A4B43604E
:100E600000238360C36003610C2242618361C3611C
:100E700004F0BAFE00B908BDFFF708FDFBE700BFAC
:100E8000940B002000100140003E490008B50C48BA
:100E90000C4B03600C4B43604FF480538360002382
:100EA000C3604FF4806202610C2242618361C361BE
:100EB00004F09AFE00B908BDFFF7E8FCFBE700BFAD
:100EC000500B002000440040A086010008B50C48EB
:100ED0000C4B03600C4B43604FF480538360002342
:100EE000C3604FF4806202610C2242618361C3617E
:100EF00004F07AFE00B908BDFFF7C8FCFBE700BFAD
:100F00000C0B002000480040A086010008B50A48EC
:100F10000A4B03600A4B436000238360C360036194
:100F20000C2242618361C36104F05EFE00B908BD1A
:100F3000FFF7ACFCFBE700BFC80A0020001401402B
:100F4000003E49002DE9F0418EB00446002309938C
:100F50000A930B930C930D930368984A93420ED017
:100F6000974A934200F08480964A934200F0DF80D3
:100F7000954A934200F048810EB0BDE8F08100250B
:100F80000095924B5A6C42F010025A645A6C02F06F
:100F900010020092009A01951A6B42F002021A6345
:100FA0001A6B02F002020192019A02951A6B42F04A
:100FB00001021A631B6B03F001030293029B80235F
:100FC00009934FF00208CDF8288003270C970726D5
:100FD0000D9609A97E4803F095FA4FF40073099322
:100FE000CDF828800B950C970D9609A9794803F048
:100FF00089FA7948794B03604FF00063436085605C
:10100000C5604FF48063036145618561C561056218
:10101000456203F0C5F828BB6F4BA3639C6370481F
:10102000704B03604FF000634360402383600023F4
:10103000C3604FF48062026143618361C3614FF416
:1010400080320262436203F0ABF870B9644B6363B1
:101050009C6300220521252003F01EF8252003F0C3
:101060002BF889E7FFF712FCD6E7FFF70FFCEDE757
:1010700000250395554B1A6C42F400321A641A6C21
:1010800002F400320392039A04951A6B42F00802AC
:101090001A631B6B03F008030493049B60230993FA
:1010A00002230A9303230C9307230D9309A94E48A7
:1010B00003F028FA4D484E4B03604FF00063436045
:1010C0008560C5604FF48063036145618561C561DA
:1010D0000562456203F064F818BB444BA3639C634C
:1010E0004448454B03604FF00063436040238360F6
:1010F0000023C3604FF48062026143618361C36176
:101100000362436203F04CF870B93A4B63639C632B
:1011100000220521262002F0BFFF262002F0CCFF8E
:101120002AE7FFF7B3FBD8E7FFF7B0FBEDE70025B1
:101130000595264B1A6C42F480221A641A6C02F44C
:1011400080220592059A06951A6B42F004021A63F2
:101150001B6B03F004030693069B4FF44063099353
:1011600002230A9303230C9307230D9309A9234811
:1011700003F0C8F92248234B03604FF0006343603B
:101180008560C5604FF48063036145618561C56119
:101190004FF400330362456203F002F858B9184B6C
:1011A000A3639C6300220521272002F075FF2720FE
:1011B00002F082FFE0E6FFF769FBF0E70010014074
:1011C0000044004000480040001401400038024044
:1011D0000004024000000240680A002088640240C7
:1011E000080A0020B8640240000C0240A809002050
:1011F0008860024048090020A060024000080240C8
:10120000E808002028600240002507952F4B5A6C03
:1012100042F020025A645A6C02F020020792079AA8
:1012200008951A6B42F040021A631B6B03F04003EF
:101230000893089B4FF48443099302230A930323E2
:101240000C9308230D9309A9214803F05BF9214869
:10125000214B03604FF0206343608560C5604FF40D
:101260008063036145618561C5610562456202F085
:1012700097FF28BB174BA3639C631848184B036068
:101280004FF020634360402383600023C3604FF42A
:101290008062026143618361C3614FF48032026204
:1012A000436202F07DFF70B90C4B63639C630022C4
:1012B0000521472002F0F0FE472002F0FDFE5BE62C
:1012C000FFF7E4FAD6E7FFF7E1FAEDE7003802406E
:1012D00000180240880800202864024028080020E6
:1012E000A0640240DFF834D00D480E490E4A0023B6
:1012F00002E0D458C4500433C4188C42F9D30B4ACA
:101300000B4C002301E013600432A242FBD3FFF731
:1013100015FD07F0CDFDFFF70FFB70470000022021
:10132000000000200C06002038A500081006002050
:10133000885F0020FEE7000008B500221021024867
:1013400003F0D6F908BD00BF0000024008B5012235
:101350001021024803F0CCF908BD00BF0000024094
:1013600008B500220121024803F0C2F908BD00BF00
:101370000004024008B501221146024803F0B8F902
:1013800008BD00BF0004024000B587B08DF80F0013
:101390004FF47A73009301230DF117020DF10F0141
:1013A0000448006803F0EFFD9DF8170007B05DF8F2
:1013B00004FB00BFD80B002038B50D46144640F0A2
:1013C0008000FFF7E1FF06E05520FFF7DDFF05F89D
:1013D000010B013CE4B2002CF6D138BD10B50C462F
:1013E000FFF7D2FF2046FFF7CFFF10BD10B50C4628
:1013F00040F08000FFF7C8FF5520FFF7C5FF2070C1
:1014000010BD000030B52DED048B89B004460023DB
:1014100006930793FFF7AAF8BD4B83ED000AFFF789
:10142000A5F8BB4BD3ED007A30EE670AF2EE047AF2
:10143000B4EEE70AF1EE10FA0CDC9FEDB60AFFF706
:10144000BBF8002323636362A362E362B0EE689A91
:101450000025DAE0B04B6362B04BA362E362B04BAD
:101460002363B04BA36194ED0C7ADFEDAF6AC6EE57
:10147000877AC4ED087A09B0BDEC048B30BD9DF8C5
:101480001B301B021BB29DF81A20134307EE903A43
:10149000A64B93ED007AF8EEE77A67EE877AC4ED13
:1014A000037AD4ED096A77EEA67AC4ED097A9DF83D
:1014B0001D301B021BB29DF81C20134307EE903A0F
:1014C000F8EEE77A67EE877AC4ED047AD4ED0A6A1B
:1014D00077EEA67AC4ED0A7A9DF81F301B021BB284
:1014E0009DF81E20134307EE903AF8EEE77A67EE78
:1014F000877AC4ED057A94ED0B7A77EE877AC4ED9E
:101500000B7AE6E00023022B0DD89A1C04EB820232
:10151000516808AA02EB830242F8141C42F8201C0E
:101520000133DBB2EFE7B0EE688A78EEC86A804B31
:10153000C3ED006A00233BE00133DBB2022B24D869
:1015400019469A1C04EB8202D2ED017A08AA02EB3A
:10155000830212ED057AF4EEC77AF1EE10FA04DD9B
:1015600008AA02EB830242ED057A08AA02EB810287
:1015700012ED087AF4EEC77AF1EE10FADCD508AA7B
:1015800002EB810141ED087AD6E7F0EE498ACCE71B
:1015900008AA02EB830252ED057A12ED087A77EE83
:1015A000C77A644A02EB8302C2ED007A0133DBB2F0
:1015B000022BEDD9F6EE007AF4EEE76AF1EE10FABE
:1015C00000F39C805B4B93ED007ADFED5B7AB4EE29
:1015D000E77AF1EE10FA00F3918093ED017AB4EE20
:1015E000E77AF1EE10FA00F3898093ED027AB4EE17
:1015F000E77AF1EE10FA00F381809FED500AFEF7D2
:10160000DBFF0135ADB2B0EE689A41F26F739D42D7
:1016100072D8FFF791FE9220FFF7B6FE062206A9C8
:101620001220FFF7C9FEFFF791FE9DF819301B024B
:101630001BB29DF81820134307EE903AF8EEE77AB4
:101640003F4A92ED007A67EE877AC4ED007A9DF802
:101650001B301B021BB29DF81A100B4307EE103A09
:10166000D2ED006AB8EEC77A27EE267A84ED017AC9
:101670009DF81D301B021BB29DF81C20134300EE89
:10168000103AB8EEC00A20EE260A84ED020A67EE90
:10169000A77A27EE077A77EE877A20EE000A37EEF0
:1016A000800A07F055FEF0EE408AD4ED0C7A77EE12
:1016B000807AC4ED0C7AFFF753FE082206A90020B9
:1016C000FFF77AFEFFF756FE9DF818300F2B3FF418
:1016D000D6AE002D3FF416AFB4EEE89AF1EE10FA54
:1016E00001D5B0EE689AB4EEE88AF1EE10FA01DDA9
:1016F000B0EE688A002321E7F0EE498AD4ED0C6A47
:101700009FED107AC6EE877AC4ED0C7A002329E0AB
:10171000E80B00200AD7A33BAC38223BB016CE39E9
:101720003F161B4100002042C3F51C410800002069
:10173000240C0020280C00209A99193E6F12033ABD
:101740000C0000200080BB4503F1080204EB82027C
:10175000D2ED016A1FED057AC6EE877AC2ED017AF5
:101760000133DBB2022BEFD9FFF7E6FDA220FFF732
:101770000BFE022206A92220FFF71EFEFFF7E6FD60
:101780009DF818209DF819305B0943EAC203B3F5B0
:10179000806F01DBA3F5006307EE903AF8EEE77A7D
:1017A000B4EE007A67EE877AB3EE077A77EE877A3F
:1017B000C4ED067A2D4A1388013313802C4B93ED28
:1017C000007AF6EE007AB4EEE77AF1EE10FA3FF71F
:1017D00026AED4ED0C7A9FED277A77EEC77AF0EE3D
:1017E000E77AB6EE007AF4EEC77AF1EE10FA3FF738
:1017F00016AE214B93ED007ADFED207AB4EEE77A56
:10180000F1EE10FA3FF70BAE93ED017AB4EEE77A02
:10181000F1EE10FA3FF703AE93ED027AB4EEE77AF9
:10182000F1EE10FA3FF7FBADD4ED097AF0EEE77A6E
:101830009FED137AF4EEC77AF1EE10FA3FF7EFADB1
:10184000D4ED0A7AF0EEE77AF4EEC77AF1EE10FA08
:101850003FF7E5ADD4ED0B7AF0EEE77AF4EEC77A18
:10186000F1EE10FA3FF7DBADFDE500BF200C0020E4
:10187000240C0020CDCC1C41280C00209A99193E44
:101880000AD7233C70B5FFF757FD8020FFF77CFD9A
:101890005520FFF779FD5520FFF776FD464C207067
:1018A000FFF754FD012002F09DFBFFF745FD80206E
:1018B000FFF76AFD5520FFF767FD5520FFF764FD30
:1018C0002070FFF743FD012002F08CFBFFF734FD91
:1018D000B6217E20FFF782FDFFF738FD502002F091
:1018E00081FBFFF729FD8020FFF74EFD5520FFF714
:1018F0004BFD5520FFF748FD2070FFF727FD012025
:1019000002F070FBFFF718FD8020FFF73DFD55202A
:10191000FFF73AFD5520FFF737FD2070FFF716FD62
:10192000012002F05FFB23781E2B42D1234B0022C3
:101930001A7002E00133214A1370204B1B78052BEB
:1019400035D8FFF7F9FC1D4D2B781D4C03EB4303F5
:10195000E2185178E05CFFF741FDFFF7F7FC01204A
:1019600002F040FBFFF7E8FC2B7803EB4303E05C5D
:1019700040F08000FFF708FD5520FFF705FD5520DA
:10198000FFF702FD0C4E3070FFF7E0FC012002F083
:1019900029FB2B7803EB430214446178327891429F
:1019A000C8D0A2780749087802430A70C2E700202D
:1019B00070BDFF20FCE700BF360C0020350C002076
:1019C000189C0008340C002070B5FFF7C9FC3F4C90
:1019D00021460020FFF70AFDFFF7CCFC012002F0B2
:1019E00001FBFFF7BDFC21460020FFF7FFFCFFF7DE
:1019F000C1FC012002F0F6FAFFF7B2FCB621142078
:101A0000FFF7ECFCFFF7B6FC502002F0EBFAFFF713
:101A1000A7FC21460020FFF7E9FCFFF7ABFC012003
:101A200002F0E0FAFFF79CFC21460020FFF7DEFC05
:101A3000FFF7A0FC012002F0D5FA23780F2B42D14A
:101A4000234B00221A7003E0214A137801331370EC
:101A50001F4B1B78052B34D8FFF782FC1C4D2B78CD
:101A60001C4C03EB4303E2185178E05CFFF7B6FC33
:101A7000FFF780FC012002F0B5FAFFF771FC134E6E
:101A80002B7803EB43033146E05CFFF7AFFCFFF735
:101A900071FC012002F0A6FA2B7803EB43021444F8
:101AA000617832789142CFD0013BDBB22B7003EBEF
:101AB0004303094A13449B78084A11780B43137077
:101AC000C2E7002070BDFF20FCE700BF360C0020FD
:101AD000350C0020049C0008189C0008340C0020E1
:101AE00038B50D46114B1860114C00232370FFF7D9
:101AF000C9FE237818432070FFF766FF2378184348
:101B0000207075B90B4B0C4A5A620C4A9A62DA6221
:101B10000B4A1A630B4A1A620B4A9A61044B1878F3
:101B200038BD0448FFF76EFCF8E700BFD80B002073
:101B3000340C0020EC0B0020AC38223BB016CE3920
:101B40003F161B41C48B813F0000204238B505463B
:101B5000FFF7F2FB9220FFF717FC734C0622214699
:101B60001220FFF729FCFFF7F1FB63781B021BB281
:101B7000227813436D4A138007EE903AF8EEE77A25
:101B80006B4991ED007A67EE877A95ED087A67EEFA
:101B9000877AC5ED007AE3781B021BB2A078034375
:101BA0001380D1ED006A07EE903AF8EEE77A67EE1F
:101BB000A67A67EE277AC5ED017A63791B021BB21C
:101BC00021790B43138007EE903AF8EEE77A67EE3F
:101BD000A67A27EE277A85ED027AFFF7C1FB082265
:101BE00021460020FFF7E8FBFFF7C4FB23780F2B0B
:101BF0002BD0FFF7A1FBA220FFF7C6FB4A4C022225
:101C000021462220FFF7D8FBFFF7A0FB227863785C
:101C10005B0943EAC203454A1380B3F5806F02DBD8
:101C2000A3F500631380414BB3F9003007EE903AFF
:101C3000F8EEE77AB4EE007A67EE877AB3EE077AC9
:101C400077EE877AC5ED077A38BD3A4B1B78002BC3
:101C50003AD0E3781B021BB2A1780B4333490B80C7
:101C6000354890ED007A07EE903AF8EEE77A67EEA5
:101C7000877AD5ED096A77EEE67AC5ED037A63795E
:101C80001B021BB2207903430B8007EE903AF8EE5B
:101C9000E77A67EE877AD5ED0A6A77EEE67AC5EDE0
:101CA000047AE3791B021BB2A27913430B8007EE7F
:101CB000903AF8EEE77A67EE877A95ED0B7A77EE51
:101CC000C77AC5ED057A94E7174AD3781B021BB291
:101CD00091780B4315490B80174890ED007A07EE79
:101CE000903AF8EEE77A67EE877AC5ED037A537992
:101CF0001B021BB2107903430B8007EE903AF8EEFB
:101D0000E77A67EE877AC5ED047AD3791B021BB2B6
:101D1000927913430B8007EE903AF8EEE77A67EE7C
:101D2000877AC5ED057A64E7E00B0020DC0B002024
:101D30000C0000200400002008000020F6EE007ACD
:101D400060EE277A10EE103A074AA2EB630307EE23
:101D5000103A67EE277A67EE277AB7EE080A30EE78
:101D6000670A27EE000A7047865A375F10B52DEDD7
:101D7000048B0446D0F8EC3093ED009A5C4A82ED77
:101D8000009A93ED018A5B4A82ED008AD3ED028AC4
:101D9000594AC2ED008AD3ED039A584BC3ED009A1D
:101DA00069EE097A28EE087A77EE877A28EEA87A23
:101DB00077EE877A29EEA90A37EE800AFFF7BEFF91
:101DC0004F4B83ED000A00230BE0D4F8EC2002EB2C
:101DD0008302D2ED007A60EE277AC2ED007A0133F9
:101DE000DBB2032BF1D9474B93ED6F7A28EE077ADC
:101DF000D4F80021F6EE007A27EE277A82ED047AF5
:101E000093ED6F7A28EE877AD4F8002127EE277AAF
:101E100082ED057A93ED6F7A29EE477AD4F80021A6
:101E200027EE277A82ED0A7A93ED6F7A29EE877A88
:101E3000D4F8002127EE277A82ED0B7A93ED6F7AA2
:101E400069EEC79AD4F8002169EEA79AC2ED109AFC
:101E500093ED6F7A29EE479AD4F8002129EE279A5C
:101E600082ED119A93ED6F7A68EE878AD4F800219B
:101E700068EEA78AC2ED168A93ED6F7A28EE478A3C
:101E8000D4F8002128EE278A82ED178AD4F8F820AA
:101E9000D2ED1C6A93ED747AC6EE877AC2ED1C7A95
:101EA000D4F8F820D2ED236A93ED747AC6EE877ADF
:101EB000C2ED237AD4F8F83093ED1C7ADFED127A74
:101EC000B4EEE77AF1EE10FA01DDC3ED1C7AD4F836
:101ED000F83093ED237ADFED0C7AB4EEE77AF1EE89
:101EE00010FA01DDC3ED237ABDEC048B10BD00BFF9
:101EF000580C0020540C0020500C00204C0C0020EA
:101F0000480C0020100D002000401C4638B5044647
:101F10009022D0F8F8100848FEF754F948252A46D0
:101F2000D4F81C110548FEF74DF92A46D4F80C11D7
:101F30000348FEF747F938BD10000020C40C00200C
:101F40007C0C00202DE9F84F044600F1780500F1E3
:101F500080073946284601F0EDFF84F8C800B4F840
:101F60007830A4F8A830B4F85A30A4F8AA3004F1B4
:101F7000580A04F1A80842465146284601F062FF7B
:101F800084F8C800B4F8A830A4F8B030B4F88230AF
:101F9000A4F8B23004F1B0094A463946404601F08F
:101FA00051FF84F8C800B4F89030A4F8A030B4F819
:101FB0009230A4F8A23004F1A0052A4604F1900161
:101FC000484601F007FE84F8C8004946284601F05B
:101FD0002DFE84F8C800D4F8EC30D3ED007AC54A61
:101FE000C2ED007A93ED016AC34A82ED006AD3ED37
:101FF000026AC24AC2ED006A93ED037AC04B83EDD8
:10200000007AB4F87830A4F8B8300123A4F8BA30D4
:1020100066EE075A27EEA65A75EEC55AD4F82C314B
:1020200075EEA55AC3ED005A67EE865A26EE875A1A
:1020300075EE855AD4F82C3175EEA55AC3ED015AC8
:1020400067EEA77A26EE066A77EEC67A66EEA66A8D
:1020500077EEE67A27EE077AD4F82C3177EE877A96
:10206000C3ED027A002512E0D4F82C3103EB85038E
:1020700093ED000AB0EEC00A07F010F905F1600216
:10208000A04B03EB820383ED010A0135EDB2022D73
:10209000EAD9B4F84830A4F8C0304FF0010BA4F8E6
:1020A000C2B004F1B80504F1C0063246294604F175
:1020B000480001F017FF84F8C800B4F8C030A4F855
:1020C000A830A4F8AAB042463146484601F0BAFE0C
:1020D00084F8C800A4F8B8B0B4F8C030A4F8BA3096
:1020E0002946304601F026FF84F8C800DFF828B200
:1020F0005A464146284601F0A5FE84F8C8009BEDEB
:10210000027ADBED037AABF5E07BF6EE006A67EE70
:10211000A66AB4EEE67AF1EE10FA02D501228BF847
:102120003821B4EEE77AF1EE10FA45DD754B93F8FD
:102130003831002B40D0734B93F83931DBB1714A01
:10214000D2F84031D2F84411013341F10001C2F814
:102150004031C2F844116B4BD3F84021D3F84431DD
:10216000332A73F100030CD30023664A82F8383116
:1021700084F82C3046E0634B00200021C3E9500175
:10218000E9E7227B604D2B8803FB02F2D4F8EC10C8
:10219000D4F8E800FEF716F8227B2B8802FB03F345
:1021A00003FB02F2D4F8FC10D4F8F800FEF70AF8AA
:1021B000012384F82C309AE0DFED546A67EEA66ABA
:1021C000B4EEE67AF1EE10FA0FDD4E4B93F83831AB
:1021D0005BB137EEC77ADFED4E6A67EEA67AC7EEDF
:1021E000276A484BC3ED676A04E0464B4FF07E52C6
:1021F000C3F89C21434B00200021C3E95001002378
:1022000084F82C30B4F85830A4F8A830B4F88230F0
:10221000A4F8AA3042463946504601F013FE84F82D
:10222000C80004F198073A464946404601F00AFEC4
:1022300084F8C80000230EE0D4F81C2102EB8302CE
:10224000D2ED007A2F4991ED677A67EE877AC2ED79
:10225000007A0133DBB2B4F89820B4F89A1001FB8D
:1022600002F29342E8DB042201E00132D2B2052AF5
:102270001DD80023022BF8D8D4F81C1102EB420021
:10228000184401EB8001D1ED007A02F15C0C1D488D
:1022900000EB8C0090ED016ADFED1E6A86EE267A77
:1022A00067EE877AC1ED007A0133DBB2E2E7B4F87A
:1022B0009830A4F8B8300123A4F8BA302A46314641
:1022C000384601F0BFFD84F8C8000E4B93F8383152
:1022D000002B50D1D4F8BC300022DA6004F1300277
:1022E000294604F1380001F075FC84F8C800BDE807
:1022F000F88F00BF780C0020740C0020700C0020B8
:102300006C0C0020100D0020FA0E0020CDCCCC3D2E
:102310006666663FDA0FC93FD00E00200133DBB29C
:10232000052BD7D8D4F8BC20990002EB830292ED9C
:10233000007A1248D0ED6F7ADFED116A67EEA67A67
:10234000B4EEE77AF1EE10FA01DDC2ED007AD4F8CE
:10235000BC200A4492ED007A0849D1ED6F7ADFED96
:10236000096A67EEA67AB4EEE77AF1EE10FAD5D5EF
:10237000C2ED007AD2E70423D2E700BF100D00209F
:102380000AD7233C0AD723BC10B52DED048B044695
:10239000D0F8EC3093ED009A39EE099A2E4A82ED8E
:1023A000009A93ED018A38EE088A2C4A82ED008A61
:1023B000D3ED029A79EEA99A294AC2ED009AD3ED9B
:1023C000038A78EEA88A274BC3ED008A827B264BCE
:1023D0001B8802FB03F3027B03FB02F20021D0F80F
:1023E0000C0106F0C5FCD4F80C31F1EE697AC3EDAE
:1023F000007AD4F80C31C3ED018AD4F80C31B1EE77
:10240000497A83ED027AD4F80C3183ED038AD4F84B
:102410000C3183ED068AD4F80C3183ED079AD4F899
:102420000C31C3ED088AD4F80C31C3ED099AD4F805
:102430000C3183ED0C9AD4F80C31B1EE488A83ED5F
:102440000D8AD4F80C31C3ED0E7AD4F80C31C3EDFB
:102450000F8ABDEC048B10BD680C0020640C0020BA
:10246000600C00205C0C0020FA0E002038B52F4BC9
:1024700001221A7083ED6C0AC3ED6D0A83ED6E1AAA
:102480002B4AC3F8CC21002283F8382100200021F8
:10249000C3E95001C3E95201F7EE007AF4EEE71AFE
:1024A000F1EE10FA01DDF0EE671A204CC4ED741A5B
:1024B00084ED642A032300220621201D00F0E4FDA0
:1024C00004F5E4730122114604F5E07001F0AAFB63
:1024D000D4F8EC304FF07E521A60D4F8EC20002390
:1024E0005360D4F8EC209360D4F8EC20D360114B07
:1024F000C4F8D030104BC4F8D430104BC4F8D830E6
:102500000F4BC4F8DC30012384F82E3084F82F30D0
:1025100090252A460B49D4F80401FDF753FE2A46BC
:102520000949D4F8FC00FDF74DFE38BD100D002020
:1025300077CC2B320D1F00086D1D00088923000881
:10254000451F00082C9C00081000002010B52DED40
:10255000088BB0EE409AB0EE608AF0EE418AF0EE61
:1025600061AAB0EE42AAF0EE629AB0EE43BA894B8D
:102570001B78002B00F0B880864C84ED6FBAD4ED48
:10258000587A39EE670A84ED5B0AD4ED597A78EE11
:10259000670AC4ED5C0AD4ED5A7A38EEE71A84ED86
:1025A0005D1AF6EE007A20EE279A29EE0B9A7A4B06
:1025B00083ED009A20EEA78A28EE0B8A774B83EDF5
:1025C000008A61EE278A68EE8B8A754BC3ED008A1C
:1025D00090227449D4F80401FDF7F4FDD4F80431D5
:1025E000F1EE497AC3ED017AD4F80431F1EE486A8C
:1025F000C3ED026AD4F80431B1EE687A83ED037A50
:10260000D4F8043183ED069AD4F80431C3ED088A76
:10261000D4F80431C3ED096AD4F8043183ED0C8A8F
:10262000D4F8043183ED0D7AD4F8043183ED0F9A98
:10263000D4F80431C3ED128AD4F8043183ED138A3F
:10264000D4F80431C3ED147AD4F84831D4F84C21CD
:10265000134305D1C4ED5EAA84ED5FAAC4ED609A70
:102660004C4B93ED5E7AD3ED645A27EE257A93EDC9
:102670006F6A75EE866AC7EE267A66EE2AAA8AEE39
:10268000A67A77EE877AC3ED5E7A93ED5F5A25EEF0
:10269000855A85EE267A26EE0AAA8AEE265A37EE63
:1026A000057A83ED5F7A93ED605A65EE855A85EE83
:1026B000A60A26EE296AC6EE265A30EE250A83EDD2
:1026C000600A67EEA77A27EE077A77EE877A20EE20
:1026D000000A37EE800AFFF731FBB0EE408A324B3A
:1026E00083ED000A00231CE09FED302AF7EE001A6C
:1026F0009FED2F1ADFED2F0AB2EE040AFFF7B6FEA8
:102700003AE7244903F15E0201EB8202D2ED007A3E
:102710008A6802EB830268EE277AC2ED007A013301
:10272000DBB2022BEDD91B4C94ED5B0A20EE000AC4
:10273000D4ED5C7A67EEA77A70EE277A94ED5D0AA5
:1027400020EE000A37EE800AFFF7F8FAB7EE007ABB
:10275000C7EE007AC4ED657AC7EE086AC4ED666A12
:102760009FED157AF4EEC77AF1EE10FA2AD5DFED77
:10277000137AF4EEE76AF1EE10FA23DDDFED107A5A
:10278000F4EEE76AF1EE10FA1CD5012284F8392143
:102790001CE000BF100D0020440C0020400C002065
:1027A0003C0C00202C9C0008380C0020000000008D
:1027B0008096184B6F12833A9A99993ECDCC14416A
:1027C000CDCC2441744B002283F83921724CD4EDD6
:1027D0006C7A94ED6F7AD4F8183167EE877AC3ED8E
:1027E000007AD4ED6C7A94ED6F7AD4F8183167EEF4
:1027F000877AC3ED077AD4ED6C7A94ED6F7AD4F8CA
:10280000183167EE877AC3ED0E7AD4ED6C7A94EDC9
:102810006F7AD4F8183167EE877AC3ED157AD4ED64
:102820006D7A94ED6F7AD4F8183167EE877AC3ED3C
:102830001C7AD4ED6D7A94ED6F7AD4F8183167EE86
:10284000877AC3ED237AD4F81C21D4F8B831136009
:10285000D4F81C211361D4F81C31D4F8B8211A62C1
:10286000201D00F095FF6368D3ED008AC4ED548A03
:1028700093ED018A84ED558AD3ED02AAC4ED56AAE0
:1028800093ED03AA84ED57AA1A69C4F860215B6925
:10289000C4F864310023C4F8683128EE8A0A68EE6F
:1028A0002A7A30EE270A28EEA89A68EE080A79EE0E
:1028B000200A70EEA00AF7EE00BA70EEEB0A30EED6
:1028C000000A06F043FD9FED35BA60EE0B9AC4EDA9
:1028D0006A9A28EE880A6AEE8A7A30EE270A6AEE49
:1028E0000A7A39EE279A39EE099A79EE6B0A30EEB8
:1028F000000A06F02BFD20EE0B0A84ED690A28EE93
:102900000A8A68EEAA8A38EE688AB8EE000A28EECB
:10291000000A06F0EFFC20EE0B0A84ED680AD4ED05
:10292000767A79EEE77A9FED1E7AF4EEC77AF1EEC9
:1029300010FA23DDB4F9D431013BA4F8D431164B9D
:10294000B3F9D42107EE902AF8EEE77A9FED157AD5
:1029500067EE877A79EEA77AC3ED6B7AC3ED769A44
:10296000D3F84821D3F84C11013241F10001C3F8EA
:102970004821C3F84C11BDEC088B10BD9FED0A7ABD
:10298000F4EEC77AF1EE10FAD9D5034AB2F9D43190
:102990000133A2F8D431D2E7100D0020E12E6542B8
:1029A000000034430000B443000034C3D0F8983032
:1029B000C3B1D0ED027A93ED017A77EE877A90ED8C
:1029C000067AD0ED076A37EE267AF6EE006A27EE31
:1029D000267A67EE877A90ED257A67EE877AC0EDE2
:1029E0000C7A7047D0ED027A90ED067AD0ED076A46
:1029F00037EE267AF6EE006A27EE267A67EE877AB9
:102A000090ED257A67EE877AC0ED0C7A7047D0EDAD
:102A1000067A90ED0A7A27EE877AB5EEC07AF1EE63
:102A200010FA26DDF5EEC07AF1EE10FA1CDD90ED1D
:102A3000157AB4EEE77AF1EE10FA1ADAD0ED146AEC
:102A400037EE266AB4EEE76AF1EE10FA0FDB90ED8E
:102A50000C6A76EEE77A37EE277AC7EE267A66EECC
:102A6000277AC0ED0C7A7047F1EE677ADFE7002332
:102A700003637047D0ED0A6A90ED0C7A36EE877AE0
:102A80001F4B83ED007AD0ED097A76EEA77A90EDB0
:102A90000B6A77EE867A1B4BC3ED007AF5EEC07AAF
:102AA000F1EE10FA28DD90ED106AB4EEE76AF1EE6F
:102AB00010FA0AD5D0ED067A66EEA76AF5EEC06A7E
:102AC000F1EE10FA01DD00230363D0ED117AB4EECC
:102AD000E77AF1EE10FA03DD00230363C0ED0A7A12
:102AE000F1EE677AB4EEE77AF1EE10FA03D500233F
:102AF0000363C0ED0A7A7047F1EE677AD3E700BF4F
:102B0000F40E0020F00E002090ED0B6AD0ED257A37
:102B100026EE276A90ED177A77EE877AC6EE276A57
:102B200090ED0F6A27EE067A87EE276A76EE867AB0
:102B3000C0ED0B7A704790ED0D6AD0ED257A26EE48
:102B4000276A90ED167A77EE877AC6EE276A90EDBF
:102B50000E6A27EE067A87EE276A76EE867AC0ED51
:102B60000D7A704790ED0D7AD0ED107AB4EEE77AD9
:102B7000F1EE10FA01DDC0ED0D7A90ED0D7AF1EE77
:102B8000677AB4EEE77AF1EE10FA01D5C0ED0D7A6E
:102B9000704790ED097AD0ED107AB4EEE77AF1EE55
:102BA00010FA01DDC0ED097A90ED097AF1EE677A4D
:102BB000B4EEE77AF1EE10FA01D5C0ED097A70476C
:102BC00090ED0D7AD0ED107ADFED206A67EEA67AEF
:102BD000B4EEE77AF1EE10FA31D4D0ED007AB0EE2F
:102BE000E77ADFED1B6AB4EEE67AF1EE10FA26D44E
:102BF000D0ED046A77EEE67AF0EEE77AC7EE876A00
:102C0000DFED147AF4EEE76AF1EE10FA18DDD0F891
:102C1000A030D0F8A420013342F10002C0F8A03067
:102C2000C0F8A420D0F8A010D0F8A43040F2F512DB
:102C3000914273F1000302D3012380F8A83070475A
:102C400000220023C0E92823ECE700BF6F12833A7B
:102C500017B7D1383333733F10B52DED028B0446CF
:102C6000D0F89830D3B1B0F86020022A3BD8D0ED2C
:102C7000037A93ED027A77EE877A90ED057AD0EDBC
:102C8000046A37EE667A67EE877AD0ED256A87EEBA
:102C9000A67A80ED0B7ABDEC028B10BDB0F86030E7
:102CA000022B10D8D0ED037A90ED057AD0ED046AAE
:102CB00037EE667A67EE877AD0ED256A87EEA67AD8
:102CC00080ED0B7AE7E790ED038AD0ED040AF1EE90
:102CD000600A90ED250A643000F028FE28EE008A94
:102CE00084ED0B8AD7E790ED038AD3ED027A38EEB4
:102CF000278AD0ED040AF1EE600A90ED250A6430CF
:102D000000F014FE28EE008A84ED0B8AC3E770B54C
:102D10000446164680ED121AC0ED110A80ED100A25
:102D200000250560C0ED011A80ED022AC0ED032ADE
:102D3000056380ED143AC0ED153A80ED164AC0EDFA
:102D4000174AA0F86010643000F0CEFD0023C4F8EC
:102D5000903084F89C6000200021C4E9280184F8A8
:102D6000A830656370BD10B52DED028B0446F0EE02
:102D7000408AB0EE608A90F99C30002BC0F2A080AF
:102D800004F19000FDF764FB84ED250AC4ED048A8C
:102D900084ED008A38EE688A84ED068AD4F8B03073
:102DA0000BB120469847D4ED060AF5EEC00AF1EEC5
:102DB00010FA40F38880F0EE607A94ED127AB4EE67
:102DC000E77AF1EE10FA6CD5D4F89830002B7DD06C
:102DD000D4ED017A93ED007A77EE877A60EEA77AE8
:102DE000C4ED097AD4ED027A93ED017A77EE877A11
:102DF00060EEA77A94ED250A67EE807AC4ED0C7A2E
:102E0000B4F86020022A00F28D80D4ED037A93EDAD
:102E1000027A77EE877A94ED077A70EEC70A67EE4A
:102E2000A07A87EE807A84ED0B7AD4F8B4300BB1B7
:102E30002046984794F89C3013F0040F40F08180AE
:102E400094F89C3013F0200F7FD194F89C3013F04D
:102E5000020F7ED194F89C3013F0400F7DD194F88E
:102E60009C3013F0010F7CD1D4ED0A7A94ED0C7AEA
:102E700077EE877AC4ED0A7A94ED097A77EE877A4D
:102E800094ED0B7A77EE877AC4ED0D7A94F89C3046
:102E900013F0100F69D12046FFF764FE2046FFF7BC
:102EA00078FE2369636194ED0D0A84ED0E0AE36AEE
:102EB000E363A369E361236B2362BDEC028B10BD66
:102EC000FFF77EFE5CE7F1EE607A76E7D4ED017AFB
:102ED00060EEA77AC4ED097AD4ED027A60EEA77AA3
:102EE00094ED250A67EE807AC4ED0C7AB4F8603070
:102EF000022B0CD8D4ED037A94ED077A70EEC70A52
:102F000067EEA07A87EE807A84ED0B7A8DE794EDF8
:102F1000038A04F1640000F009FD28EE008A84EDC4
:102F20000B8A82E794ED038AD3ED027A38EE278A82
:102F300004F1640000F0FAFC28EE008A84ED0B8AAC
:102F400073E72046FFF732FD7AE72046FFF75FFD83
:102F50007BE72046FFF780FE7CE72046FFF7D4FDA5
:102F60007DE72046FFF786FD7EE72046FFF7E3FD7D
:102F700091E7000070B5044600250574827B414E40
:102F8000338803FB02F24168D0F8F400FDF71AF928
:102F9000A27B338803FB02F22946606805F0E8FE55
:102FA000A27B338802FB03F303FB02F22946D4F829
:102FB000180105F0DDFE227B338802FB03F3A27BC0
:102FC00003FB02F22946D4F80C0105F0D1FE294694
:102FD00001E00131C9B2A37B8B422AD9D4F8F43085
:102FE0004FEA810C03EB8102D2ED007AF5EE407AD4
:102FF000F1EE10FAEDD0227C03EB8203C3ED007AF0
:10300000626A237CD154A069D4F80C2194F80CE0B6
:10301000257C63695B5C05FB0E3303F18043013B58
:1030200002EB8302604403681360237C0133237442
:10303000CFE700230FE0E069616A11F803C0D4F81C
:10304000181102FB033201EB820100EB8C000268D5
:103050000A600133DBB2227C9A42ECD8A4F87820D3
:10306000237BA4F87A30A4F88030A4F88220A4F856
:103070009020A4F89220A4F89830A4F89A20A4F8FC
:10308000482070BDFA0E00202DE9F04704460D4699
:1030900091461E46DFF8B8830423A8F80030EB4BB6
:1030A00008221A80017380F80D9086730027077438
:1030B000304605F097FB60613246394605F058FE10
:1030C000B8F800A006FB0AFA504605F08BFBA06199
:1030D0005246394605F04CFEB8F800A006FB0AFA45
:1030E000504605F07FFBE0615246394605F040FE50
:1030F000B8F800A005FB0AFA504605F073FB206201
:103100005246394605F034FE304605F06BFB6062EE
:103110003246394605F02CFEB8F800A005FB0AFA45
:10312000504605F05FFB20605246394605F020FE10
:10313000B8F800A006FB0AFA504605F053FB6060A1
:103140005246394605F014FEB8F800A009FB0AFA09
:10315000504605F047FBA0605246394605F008FE90
:10316000B8F800A005FB0AFA504605F03BFBC4F88E
:10317000E8005246394605F0FBFDD4F8E83001225C
:10318000217B04F1300000F04DFDB8F8008005FB14
:1031900008F8404605F026FBC4F8EC0042463946E4
:1031A00005F0E6FDD4F8EC300122217B04F1380073
:1031B00000F038FDB9F1000F40F04C81DFF890824B
:1031C000B8F8007006FB07F7384605F00BFBC4F8AB
:1031D000F4003A46002105F0CBFDD4F8F43001228A
:1031E000A17B04F1480000F01DFDB8F8007005FB5C
:1031F00007F705FB07F7384605F0F4FAC4F8F800BE
:103200003A46002105F0B4FD217BD4F8F8300A4697
:1032100004F1500000F006FDB8F8007005FB07F758
:1032200005FB07F7384605F0DDFAC4F8FC003A461E
:10323000002105F09DFD217BD4F8FC300A4604F105
:10324000580000F0EFFCB8F8007005FB07F705FB2D
:1032500007F7384605F0C6FA8246C4F8000138463A
:1032600005F0C0FAC4F804013A460021504605F0C2
:103270007FFDB8F8002005FB02F205FB02F20021F9
:10328000D4F8040105F074FD217BD4F800310A461E
:1032900004F1600000F0C6FC217BD4F804310A463A
:1032A00004F1680000F0BEFCB9F1000F40F0E880C6
:1032B000674FB7F800A00AFB06F909FB05F9484675
:1032C00005F090FA8046C4F80C010AFB05F006FBF5
:1032D00000F005F087FAC4F810014A460021404684
:1032E00005F046FD3A8805FB02F206FB02F20021DA
:1032F000D4F8100105F03CFDD4F80C31227BA17B01
:1033000004F1780000F08EFCD4F81031A27B217B10
:1033100004F1800000F086FCB7F8008005FB08F897
:1033200008FB05F8404605F05DFAC4F81401424672
:10333000002105F01DFD217BD4F814310A4604F16B
:10334000880000F06FFCB7F8008006FB08F808FB67
:1033500006F8404605F046FAC4F818014246002136
:1033600005F006FDA17BD4F818310A4604F190005F
:1033700000F058FC3B8805FB03F303FB06F63046E0
:1033800005F030FAC4F81C013246002105F0F0FCCB
:10339000D4F81C31A27B217B04F1980000F042FCA0
:1033A00094F80C803E8808FB06F606FB08F52846D4
:1033B00005F018FA0746C4F82001284605F012FA6D
:1033C000C4F82401284605F00DFAC4F82801304657
:1033D00005F008FAC4F82C01304605F003FAC4F8E9
:1033E00030013B464246414604F1A00000F01AFC81
:1033F000217BD4F824310A4604F1A80000F012FC25
:10340000217BD4F828310A4604F1B00000F00AFC10
:10341000D4F82C310122217B04F1B80000F002FC29
:10342000D4F830310122217B04F1C00000F0FAFB16
:10343000002384F8283084F8293084F82A3084F86E
:103440002B3084F82C30BDE8F08700BFF80E002048
:10345000FA0E0020164B1F8809FB07F7384605F0C7
:10346000C1F9C4F8F0003A46002105F081FCD4F817
:10347000F0300122617B04F1400000F0D3FB9DE6B7
:10348000B8F8003005FB03F303FB09F9484605F0E3
:10349000A9F9C4F808014A46002105F069FCD4F8EE
:1034A0000831627B217B04F1700000F0BBFBFFE67A
:1034B000FA0E002038B50446C37B63B1FFF75AFD0E
:1034C000627B0E4B1B8803FB02F2A168D4F8F0006C
:1034D000FCF778FE38BD827B084D2B8803FB02F297
:1034E0004168D0F8F400FCF76DFEA27B2B8803FB4B
:1034F00002F20021606805F03BFCE1E7FA0E0020D3
:1035000090F82830B3BB70B50446437B43B3037BCC
:10351000A0F8B8300126A0F8BA6000F1B8052A4634
:1035200000F13001603000F08DFC84F8C800237B8E
:10353000A4F8C030A4F8C26004F1C006324604F119
:10354000400104F1700000F07DFC84F8C80004F133
:1035500038023146284600F03DFB84F8C80070BDB3
:1035600000F1380200F13001603000F06BFC84F8AB
:10357000C800F4E77047F8B590F8293003B1F8BDFA
:10358000044600F1600600F168073946304600F055
:10359000D1FC84F8C80004F158052A4604F1500112
:1035A000304600F04FFC84F8C800B4F85830A4F856
:1035B000A830B4F86A30A4F8AA3004F1A80632465C
:1035C0003946284600F03EFC84F8C8002A4604F13B
:1035D0008801304600F0FEFA84F8C800CFE72DE9F4
:1035E000F84390F82A300BB1BDE8F883044600F1A7
:1035F000780600F180073946304600F09BFC84F8DD
:10360000C800B4F87830A4F8A830B4F85A30A4F858
:10361000AA3004F1580804F1A8052A46414630466C
:1036200000F010FC84F8C800B4F8A830A4F8B0305A
:10363000B4F88230A4F8B23004F1B006324639460C
:10364000284600F0FFFB84F8C800B4F89030A4F8D6
:10365000A030B4F89230A4F8A23004F1A0094A4690
:1036600004F19001304600F0B5FA84F8C800314604
:10367000484600F0DBFA84F8C800B4F85830A4F8E3
:10368000A830B4F88230A4F8AA302A463946404619
:1036900000F0D8FB84F8C80004F1980231462846AF
:1036A00000F0D0FB84F8C8009EE790F82B3003B1FF
:1036B00070472DE9F0410446B0F87830A0F8B830F2
:1036C0000126A0F8BA6000F1380700F1B8052A46D3
:1036D0003946783000F0B6FB84F8C800B4F84830BA
:1036E000A4F8C030A4F8C26004F1C00842462946DC
:1036F00004F1480000F0F6FB84F8C800B4F89830F4
:10370000A4F8B830A4F8BA602A46414604F19800FB
:1037100000F098FB84F8C80004F1300229463846CE
:1037200000F058FA84F8C800BDE8F081F8B590F8C8
:103730002C3003B1F8BD0446B0F89830A0F8A8309A
:10374000B0F87A20A0F8AA20A0F8B030B0F85A302B
:10375000A0F8B23000F1A8073A4600F1780198309D
:1037600000F070FB84F8C80004F1580504F1B006BD
:1037700032462946384600F065FB84F8C80004F15B
:1037800050023146284600F0ADFB84F8C800D1E76E
:1037900038B50446FFF78EFED4F8CC300BB1204686
:1037A00098472046FFF7ACFED4F8D0300BB1204646
:1037B00098472046FFF7DFFED4F8D4300BB12046FF
:1037C0009847237C0BB9E37BCBB92046FFF707FF73
:1037D000D4F8D8300BB1204698472046FFF765FF54
:1037E000D4F8DC300BB1204698472046FFF79EFF07
:1037F000D4F8E0300BB120469847002319E0227B33
:10380000204D2B8803FB02F2D4F8EC10D4F8E8002A
:10381000FCF7D8FC227B2B8802FB03F303FB02F2AC
:10382000D4F8FC10D4F8F800FCF7CCFCE0E7013346
:10383000DBB2227B9A4214D9D4F8F81002FB03328F
:1038400001EB820292ED007A216A01EB8301D1ED56
:10385000007AB4EEE77AF1EE10FAE8D5C2ED007A1C
:10386000E5E7084B1B8803FB02F2D4F8E810206858
:10387000FCF7A8FCD4F8E4300BB120469847206848
:1038800038BD00BFFA0E0020B4EEE00AF1EE10FAE7
:1038900007D4B4EEC10AF1EE10FA04DDB0EE410A2D
:1038A0007047B0EE600A7047FDEEC07A0C4BC3ED76
:1038B000007AB8EEE77A30EE470A0A4B83ED000A49
:1038C000B6EE007AB4EEC70AF1EE10FA04DD17EE98
:1038D000903A0133024A1360014B1868704700BFE9
:1038E000040F0020000F0020F8B5044601800026D8
:1038F00046608D00284604F075FF0746A060284604
:1039000004F070FFE0600023236163612A463146C2
:10391000384605F02DFA2A463146E06805F028FAC7
:10392000E66126626662A662F8BD0000836893EDD8
:10393000017A5D4B83ED007A002313E08268591C05
:1039400002EB810CDCED007A02EB830277EEC77AA2
:10395000C2ED007AC26802EB830302EB81021268B7
:103960001A608BB20288511E8B42E7DB816802F13C
:103970008043023B01EB8303D3ED007A6FF0404CB0
:10398000624401EB820177EE807AC1ED007AC36870
:103990000288624403EB8203C3ED000A4368B0F877
:1039A00000C0634501D2013343600023C361036259
:1039B000436283628388ACEB03039BB21A462DE01B
:1039C00090ED077A816801EB8201D1ED007A67EE14
:1039D000A77A77EE277AC0ED077AD0ED087A91EDD5
:1039E000007A77EE877AC0ED087AD0ED097A91ED0A
:1039F000007AC16801EB8201D1ED006A27EE267AD8
:103A000077EE877AC0ED097AD0ED0A7A91ED007AE7
:103A100077EE877AC0ED0A7A013292B29445CFD818
:103A200090ED097A07EE90CAB8EEE76A27EE067ABB
:103A3000D0ED086AD0ED0A7A66EEA77A37EE677A9B
:103A4000D0ED077A66EE277A66EEA66A77EEE67A1A
:103A500087EE270A80ED040A002282611BE090EDC8
:103A6000067A826802EB8302D2ED007A60EE277A52
:103A7000D0ED056A77EEA67AC26802EB8302D2ED3A
:103A8000006A77EEE67AF0EEE77A77EE277AC0ED15
:103A9000067A01339BB29C45E1D890ED067AC7EED9
:103AA000067AC0ED067A7047FC0E0020DFED1E7A24
:103AB00020EE270AF5EE007A30EE270AFDEEC07AF6
:103AC000B5EEC00AF1EE10FA28D4F8EEE77A70EEFF
:103AD000677A9FED167A67EE877ABCEEE77A17EE83
:103AE000103AC3F3080307EE103AB8EE477A77EEC0
:103AF000C77A0F4A02EB8301D1ED006A013302EB72
:103B0000830292ED007AB7EE000A30EE670A20EEEB
:103B1000260A67EE877A30EE270A704717EE903A4A
:103B2000013B07EE903AD0E783F9223E00000044C3
:103B3000BC9C0008B5EEC00AF1EE10FA33D4DFEDFC
:103B4000217A60EE277ABDEEE77AB5EEC00AF1EE93
:103B500010FA30D4B8EEC77A77EEC77A9FED1A7AAA
:103B600067EE877ABCEEE77A17EE103AC3F30803E4
:103B700007EE103AB8EE477A77EEC77A134A02EBAF
:103B80008301D1ED006A013302EB830292ED007AEA
:103B9000B7EE000A30EE670A20EE260A67EE877A53
:103BA00030EE270A7047DFED0A7AB4EEE70AF1EE4D
:103BB00010FAC4DBF6E717EE103A013B07EE103AB5
:103BC000C8E700BF83F9223E00000044BC9C000807
:103BD000CD024CB430B58C46964643684A68DEF850
:103BE00004100468DCF80050AC4215D1DEF8005037
:103BF000AC4214D1B0F800C0408800FB0CF008E0E3
:103C0000F3EC017AB2EC017A77EE877AE1EC017A93
:103C100001380028F4D130BD6FF00200FBE76FF0EF
:103C20000200F8E701804280436070472DE9F04FC1
:103C300085B0D0F804A04C680294B0F80080B0F8C9
:103C400002C0E04540F0E6800B884A88934240F08D
:103C5000E480984540F0E48046462346A6B1A8EBB0
:103C6000060222B1002143F8041B013AF9E74FF0A4
:103C70007E5243F8042B013E3246002AEED000214A
:103C800043F8041B013AF8E73546E3463146DFEDD9
:103C90006C6A039082E0681C0124404580F09280A9
:103CA00009EB07020CFB04F30EEB8303D2ED007A61
:103CB000F5EE407AF1EE10FA02D101340130ECE772
:103CC00030464946ACEB0504844207D914680F68B6
:103CD00042F8047B41F8044B0130F3E73146724669
:103CE000614507D21868146843F8044B42F8040B86
:103CF0000131F5E7012165E092ED007AC7EE267A01
:103D0000E2EC017A0133ACEB05049C42F4D8334673
:103D1000724606E092ED007AC7EE267AE2EC017A6E
:103D200001336345F6D3374602985246CDF80490E6
:103D300026E002EB840200EB8C001EE0D2ED007A5C
:103D4000B3EC017A27EE267A77EEC77AE2EC017AB5
:103D500009F101094C45F1D8B14673460BE0D0EDAD
:103D6000007AB3EC017A27EE267A77EEC77AE0EC98
:103D7000017A09F10109E145F1D302EB850201372E
:103D8000474506D2AF42D4D0D2ED006AB146019B7E
:103D9000E0E70AF1040A0BF1FF3B0135BBF1000F2C
:103DA0001CD00CFB05FE4FEA8E070AEB8E09029B26
:103DB00003EB8E0E99ED007AB5EE407AF1EE10FA33
:103DC0003FF469AF012904D0B5EE407AF1EE10FA64
:103DD00029D0D9ED006A33464A4694E70398012971
:103DE00026D0F5EE406AF1EE10FA23D140680CFBC4
:103DF00008F38B420AD900EB8102D2ED007AF5EE8E
:103E0000407AF1EE10FA01D10131F0E78B4213D084
:103E100000200AE06FF0020007E06FF0020004E00B
:103E20006FF0020001E06FF0040005B0BDE8F08F14
:103E30000020FAE70020F8E76FF00400F5E700BF84
:103E4000000000002DE9F04704461346D0F804E0D6
:103E5000D2F804A00788488865884E680A88AA4274
:103E600035D189461A88BA4234D15B88834234D12D
:103E70004FF0000822E0F3EC017AD1ED006A67EE22
:103E8000A67A37EE277A01EB8001013A92B2002A36
:103E9000F1D1ACEC017A013CA4B2011B06EB81012B
:103EA00024B12A4673469FED0E7AF0E780441FFA4C
:103EB00088F80EEB850E013FBFB22FB10AEB880CDC
:103EC000D9F804100446ECE70020BDE8F0876FF055
:103ED0000200FAE76FF00200F7E76FF00200F4E784
:103EE0000000000030B58C46964643684A68DEF80C
:103EF00004100468DCF80050AC4215D1DEF8005024
:103F0000AC4214D1B0F800C0408800FB0CF008E0CF
:103F1000F3EC017AB2EC017A77EEC77AE1EC017A40
:103F200001380028F4D130BD6FF00200FBE76FF0DC
:103F30000200F8E770B543684E68B0F800C04588E5
:103F40004A8862451CD10A88AA421CD164464FF0B7
:103F5000000E0FE053F8040B086001EB8C01013AEE
:103F600092B2002AF6D10EF1010E1FFA8EFE013C2C
:103F7000A4B21CB106EB8E012A46F2E7002070BD08
:103F80006FF00200FBE76FF00200F8E708B50B4B9B
:103F90001A6842F400721A601A6842F480621A6069
:103FA0001A6842F480721A60032000F063F80F2050
:103FB000FCF7D0FDFCF7ACFD002008BD003C024042
:103FC000034A1168034B1B780B441360704700BF12
:103FD000080F0020A0000020014B1868704700BFA8
:103FE000080F002038B50446FFF7F6FF0546B4F188
:103FF000FF3F02D0044B1B781C44FFF7EDFF401B32
:10400000A042FAD338BD00BFA0000020002808DB82
:104010000901C9B200F1604000F5614080F8001369
:10402000704700F00F000901C9B2014B19547047E5
:1040300014ED00E000B500F00700C0F1070CBCF182
:10404000040F28BF4FF0040C031D062B0FD9C31E0D
:104050004FF0FF3E0EFA0CF021EA000199400EFAF3
:1040600003FE22EA0E0241EA02005DF804FB00238F
:10407000EEE70000074AD36823F4E0631B041B0C3F
:10408000000200F4E060034343F0BF6343F40033F5
:10409000D360704700ED00E010B50446054BD868CA
:1040A000C0F30220FFF7C6FF01462046FFF7AEFF30
:1040B00010BD00BF00ED00E0002807DB00F01F028C
:1040C000400901239340024A42F82030704700BF64
:1040D00000E100E010B40368D9B210390A4AA2FB2B
:1040E00001421209094CA25CC2655F2907D96FF32E
:1040F000090304338365806D5DF8044B70476FF3EB
:1041000009038365F7E700BFABAAAAAAC0A4000809
:10411000836A826992B9012B0AD0022B02D00BB1BB
:1041200000207047C36A13F0807F28D100207047B9
:10413000C36AB3F1C07F24D000207047B2F5005F9E
:1041400009D0022B25D9032B25D1C36A13F0807F18
:1041500023D100207047032B03D8DFE803F01404B9
:10416000140A00207047C36A13F0807F0DD100202D
:104170007047C36AB3F1C07F09D0002070470120A7
:1041800070470120704701207047012070470120CF
:1041900070470120704700207047012070470000E1
:1041A00070B50446FFF718FF002C5BD005460223CC
:1041B00084F83530002384F834302268136823F003
:1041C0000103136023681A6812F0010F0AD0FFF789
:1041D00003FF431B052BF5D920236365032084F8D7
:1041E000350070BD1A68204911406268A06802431A
:1041F000E06802432069024360690243A069024308
:10420000E0690243206A02430A43616A04291ED01E
:104210001A602668756925F00705636A1D43042B3B
:1042200007D1A36A1D43E36A1BB12046FFF770FF65
:1042300090B975612046FFF74DFFE26D3F23934033
:10424000836000206065012384F83530C9E7E16AA6
:10425000206B01430A43DBE740236365012084F8B8
:104260003500BEE70120BCE73F8010F070B5044682
:10427000866DFFF7B1FE94F83530DBB2022B06D025
:1042800080236365002384F83430012070BD054627
:104290002268136823F0160313602268536923F021
:1042A00080035361236CE3B12268136823F0080391
:1042B00013602268136823F00103136023681B68EE
:1042C00013F0010F11D0FFF787FE431B052BF5D923
:1042D00020236365032084F83500002384F83430FC
:1042E000D4E7A36C002BDFD1E3E7E26D3F239340DB
:1042F000B360012384F83530002084F83400C5E72A
:1043000090F83530DBB2022B03D0802343650120C7
:104310007047052380F835300268136823F00103E5
:104320001360002070470000F0B583B004460023FE
:104330000193724B1D68724BA3FB0535AD0A876D67
:104340003E68C26D08239340334210D003681A6858
:1043500012F0040F0BD01A6822F004021A60C26D2A
:1043600008239340BB60436D43F001034365E26D56
:1043700001239340334209D02268526912F0800F22
:1043800004D0BB60636D43F002036365E26D0423F8
:104390009340334209D02268126812F0020F04D011
:1043A000BB60636D43F004036365E26D10239340CB
:1043B000334224D02268126812F0080F1FD0BB606D
:1043C00023681A6812F4802F0DD01B6813F4002F95
:1043D00004D1236C9BB12046984710E0A36C73B1C5
:1043E000204698470BE01A6812F4807F03D11A68C0
:1043F00022F008021A60236C0BB120469847E26D48
:1044000020239340334255D02268126812F0100FD7
:1044100050D0BB6094F83530DBB2052B0ED023684A
:104420001A6812F4802F33D01B6813F4002F2AD19E
:10443000636C002B3ED0204698473BE0226813680F
:1044400023F0160313602268536923F0800353613D
:10445000236CA3B12268136823F008031360E26D94
:104460003F239340BB60012384F83530002384F858
:104470003430236D002B3FD0204698473CE0A36C9E
:10448000002BE7D1EBE7E36BA3B12046984711E09F
:104490001A6812F4807F09D11A6822F010021A609B
:1044A000012384F83530002384F83430E36B0BB1FA
:1044B00020469847636DFBB1636D13F0010F17D071
:1044C000052384F835302268136823F00103136054
:1044D000019B01330193AB4204D823681B6813F09E
:1044E000010FF5D1012384F83530002384F83430EE
:1044F000E36C0BB12046984703B0F0BD00000020EC
:10450000B5814E1B00230F2B00F2E98070B582B0FD
:1045100065E085684FEA430E032404FA0EF425EAA9
:104520000405CC6804FA0EF42C438460446824EA41
:1045300002044A68C2F300129A40224342605CE0DF
:10454000DC08083450F8242003F00705AD004FF0D4
:104550000F0E0EFA05FE22EA0E0E0A69AA4042EA82
:104560000E0240F824205CE0072200E0002202FA5C
:104570000EF22A4302345A4D45F82420594A9468D1
:104580006FEA0C0224EA0C054E6816F4801F01D075
:104590004CEA0405534CA560E46802EA04054E6841
:1045A00016F4001F01D04CEA04054E4CE560646827
:1045B00002EA04054E6816F4003F01D04CEA0405F7
:1045C000484C6560246822404D6815F4803F01D056
:1045D0004CEA0402434C226001330F2B7DD80122A8
:1045E0009A400C6804EA020C32EA0404F4D14C68E4
:1045F00004F00304013C012C8BD94A6802F0030249
:10460000032A09D0C4685D000322AA4024EA0204F8
:104610008A68AA402243C2604A6802F00302022A62
:104620008ED004684FEA430E032202FA0EF224EA07
:1046300002044A6802F0030202FA0EF22243026008
:104640004A6812F4403FC7D000220192264A546CB7
:1046500044F480445464526C02F480420192019A02
:104660009C08A51C1E4A52F8255003F0030E4FEA81
:104670008E0E0F2202FA0EF225EA02051B4A904224
:104680003FF474AF02F5806290421AD002F5806266
:10469000904218D002F58062904216D002F58062F6
:1046A000904214D002F58062904212D002F58062EE
:1046B000904210D002F5806290423FF455AF08223C
:1046C00055E7012253E7022251E703224FE7042274
:1046D0004DE705224BE7062249E702B070BD70475F
:1046E00000380140003C0140003802400000024018
:1046F0000AB181617047090481617047436901EA29
:10470000030221EA030141EA02418161704700008E
:10471000002800F0E08170B582B00446036813F011
:10472000010F3BD09F4B9B6803F00C03042B2CD054
:104730009C4B9B6803F00C03082B21D06368B3F5F6
:10474000803F4FD0B3F5A02F52D0964B1A6822F479
:1047500080321A601A6822F480221A606368002B83
:1047600050D0FFF739FC05468E4B1B6813F4003F11
:1047700014D1FFF731FC401B6428F5D90320B1E1C7
:10478000884B5B6813F4800FD8D0864B1B6813F4FA
:10479000003F03D06368002B00F09F81236813F073
:1047A000020F54D07F4B9B6813F00C0F3ED07D4B13
:1047B0009B6803F00C03082B33D0E368002B68D010
:1047C000794B01221A60FFF707FC0546754B1B6801
:1047D00013F0020F54D1FFF7FFFB401B0228F5D95D
:1047E00003207FE16F4A136843F480331360B5E719
:1047F0006C4B1A6842F480221A601A6842F48032C4
:104800001A60ABE7FFF7E8FB0546664B1B6813F43D
:10481000003FC3D0FFF7E0FB401B6428F5D903201D
:1048200060E1604B5B6813F4800FC6D15D4B1B6881
:1048300013F0020F03D0E368012B40F05081594A76
:10484000136823F0F803216943EAC1031360236866
:1048500013F0080F42D063696BB3534B0122C3F8C6
:10486000802EFFF7B9FB05464E4B5B6F13F0020F2E
:1048700034D1FFF7B1FB401B0228F5D9032031E109
:10488000484A136823F0F803216943EAC10313601F
:10489000DDE7454B00221A60FFF79EFB0546414BC2
:1048A0001B6813F0020FD2D0FFF796FB401B0228C3
:1048B000F5D9032016E13C4B0022C3F8802EFFF708
:1048C0008BFB0546374B5B6F13F0020F06D0FFF7EB
:1048D00083FB401B0228F5D9032003E1236813F072
:1048E000040F77D02F4B1B6C13F0805F33D1002364
:1048F00001932C4B1A6C42F080521A641B6C03F02B
:1049000080530193019B0125284B1B6813F4807F82
:1049100023D0A368012B34D0052B38D0214B1A6F3C
:1049200022F001021A671A6F22F004021A67A368C4
:10493000002B3DD0FFF750FB06461A4B1B6F13F0C0
:10494000020F46D1FFF748FB801B41F288339842A3
:10495000F3D90320C6E00025D6E7144A136843F4D0
:1049600080731360FFF738FB0646104B1B6813F487
:10497000807FCED1FFF730FB801B0228F5D90320C2
:10498000B0E0084A136F43F001031367CFE7054B0C
:104990001A6F42F004021A671A6F42F001021A6796
:1049A000C5E700BF003802400000474200700040E9
:1049B000FFF712FB0646524B1B6F13F0020F08D095
:1049C000FFF70AFB801B41F288339842F3D903209A
:1049D00088E0EDB9A369002B00F08380484A926813
:1049E00002F00C02082A51D0022B17D0454B0022AE
:1049F0001A66FFF7F1FA0446414B1B6813F0007F7B
:104A000042D0FFF7E9FA001B0228F5D9032069E03C
:104A10003B4A136C23F080531364DBE7394B0022CD
:104A20001A66FFF7D9FA0546354B1B6813F0007F6D
:104A300006D0FFF7D1FA401B0228F5D9032051E038
:104A4000E369226A1343626A43EA8213A26A520844
:104A5000013A43EA0243E26A43EA0263284A5360A6
:104A6000284B01221A66FFF7B7FA0446244B1B684D
:104A700013F0007F06D1FFF7AFFA001B0228F5D92B
:104A800003202FE000202DE000202BE0012B2BD075
:104A90001B4B5B6803F48001E269914226D103F06D
:104AA0003F02216A8A4223D1616A47F6C0721A40E6
:104AB000B2EB811F1ED103F44031A26A5208013AC1
:104AC000B1EB024F18D103F07063E26AB3EB026FEF
:104AD00014D1002006E001207047012002E00120EF
:104AE00000E0002002B070BD0120FBE70120F9E7E3
:104AF0000120F7E70120F5E70120F3E70120F1E7C6
:104B0000003802400000474208B5264B9B6803F07E
:104B10000C03042B41D0082B41D1224B5A6802F0E0
:104B20003F025B6813F4800F12D01E4B5968C1F32B
:104B300088111D480023A1FB0001FBF729FB194B3D
:104B40005B68C3F3014301335B00B0FBF3F008BDC6
:104B5000144B5868C0F388104FEA401CBCEB000CA3
:104B60006EEB0E0E4FEA8E1343EA9C634FEA8C11F4
:104B7000B1EB0C0163EB0E03DB0043EA5173C90098
:104B800011EB000C43F10003990200234FEA8C2043
:104B900041EA9C51FBF7FCFAD1E70348D7E7034809
:104BA000D5E700BF00380240001BB7000024F40026
:104BB000002800F09B8070B50D4604464F4B1B68E3
:104BC00003F007038B4208D2CBB24C4A1370136830
:104BD00003F007038B4240F08B80236813F0020F31
:104BE00017D013F0040F04D0454A936843F4E05300
:104BF0009360236813F0080F04D0414A936843F48C
:104C0000604393603E4A936823F0F003A1680B432E
:104C10009360236813F0010F32D06368012B21D019
:104C20009A1E012A25D9364A126812F0020F61D065
:104C300033498A6822F0030213438B60FFF7CCF9F3
:104C400006462F4B9B6803F00C036268B3EB820FA0
:104C500016D0FFF7C1F9801B41F288339842F0D992
:104C6000032042E0264A126812F4003FE0D10120FE
:104C70003BE0234A126812F0007FD9D1012034E0D2
:104C80001E4B1B6803F00703AB4207D9EAB21B4B6C
:104C90001A701B6803F00703AB422DD1236813F091
:104CA000040F06D0164A936823F4E053E1680B43DF
:104CB0009360236813F0080F07D0114A936823F418
:104CC0006043216943EAC1039360FFF71DFF0C4B6A
:104CD0009B68C3F303130B4AD35CD8400A4B18609C
:104CE0000A4B1868FBF736FF002070BD01207047A3
:104CF0000120FAE70120F8E70120F6E7003C024036
:104D000000380240F49B000800000020A4000020AE
:104D1000014B1868704700BF0000002008B5FFF77E
:104D2000F7FF044B9B68C3F38223034AD35CD8404C
:104D300008BD00BF00380240EC9B000808B5FFF733
:104D4000E7FF044B9B68C3F34233034AD35CD8406C
:104D500008BD00BF00380240EC9B00080F23036031
:104D60000B4B9A6802F0030242609A6802F0F0026C
:104D700082609A6802F4E052C2609B68DB0803F428
:104D8000E0530361034B1B6803F007030B6070479C
:104D900000380240003C02402DE9F04782B0054651
:104DA000884617461E46FFF717F90A9B1B1A03EBA6
:104DB0000609FFF711F98246284B1B68C3F3CB3372
:104DC00009FB03F301932B689C6838EA04040CBFC9
:104DD00001230023BB423DD0B6F1FF3FF3D0FFF7E4
:104DE000FBF8A0EB0A00484507D2019A02B14A46F7
:104DF000019B013B01939146E5E72A68536823F044
:104E0000E00353606B68B3F5827F0BD0AB6AB3F5F8
:104E1000005F14D0012385F85130002385F850300D
:104E2000032018E0AB68B3F5004F02D0B3F5806FF4
:104E3000ECD12A68136823F040031360E6E72A6880
:104E4000136823F4005313602A68136843F4005373
:104E50001360DFE7002002B0BDE8F087000000200B
:104E600010B584B00446164B1868164BA3FB0030EF
:104E7000400D4FF47A7303FB00F003906368B3F5C1
:104E8000827F0BD0039BBBB1039B013B0393236841
:104E90009B6813F0800FF5D100200EE000920B46C6
:104EA000002280212046FFF777FF30B1636D43F089
:104EB00020036365032000E0002004B010BD00BFA4
:104EC00000000020819F5E1600285AD010B50446CD
:104ED000436A33B94368B3F5827F05D00023C361C9
:104EE00002E00023036143610023A36294F8513080
:104EF000002B40D0022384F851302268136823F03D
:104F000040031360636803F48273A26802F40442EE
:104F10001343E26802F400621343226902F00202C2
:104F20001343626902F001021343A26902F40072A2
:104F30001343E26902F038021343226A02F080024E
:104F40001343A26A02F40052216813430B60638B7F
:104F500003F00403626A02F01002216813434B60FD
:104F60002268D36923F40063D361002060650123C4
:104F700084F8513010BD84F850302046FBF728FDEE
:104F8000B8E7012070472DE9F04383B01F460A9D22
:104F900090F85030012B00F010810446884691466D
:104FA000012380F85030FFF717F8064694F8513087
:104FB000DBB26268012B0AD0B2F5827F40F0E38059
:104FC000A268002A40F0E980042B40F0E880B8F1A4
:104FD000000F00F0E680B9F1000F00F0E480002F30
:104FE00000F0E38094F85130DBB2042B02D00523AB
:104FF00084F8513000236365C4F83890E787A787A9
:10500000C4F83080E786A7862364636423681A683F
:1050100012F0400F03D11A6842F040021A60E368B0
:10502000B3F5006F11D063680BB1012F0BD1226B68
:10503000236812781A73236B01332363E38E9BB2C8
:10504000013B9BB2E38601276BE063680BB1012F44
:105050000BD1226B23681288DA60236B023323633F
:10506000E38E9BB2013B9BB2E38601271CE02368E1
:105070009A6812F0010F0ED0E28F92B25AB1DA683C
:10508000A36B1A80A36B0233A363E38F9BB2013B34
:105090009BB2E3870127FEF79FFF801BA84203D343
:1050A000B5F1FF3F40F08380E38E9BB21BB9E38FE5
:1050B0009BB2002B53D023689A6812F0020FD6D00F
:1050C000E28E92B2002AD2D0002FD0D0226B12886A
:1050D000DA60236B02332363E38E9BB2013B9BB206
:1050E000E3860027C3E723689A6812F0010F0ED009
:1050F000E28F92B25AB1DA68A36B1A70A36B0133D4
:10510000A363E38F9BB2013B9BB2E3870127FEF7CA
:1051100063FF831BAB4202D3B5F1FF3F49D1002DA2
:1051200049D0E38E9BB213B9E38F9BB2BBB1236826
:105130009A6812F0020FD6D0E28E92B2002AD2D034
:10514000002FD0D0226B12781A73236B01332363A4
:10515000E38E9BB2013B9BB2E3860027C3E7324656
:1051600029462046FFF77CFE48B9A36863B901933E
:105170002368DA6801929B680193019B04E0202375
:105180006365012000E00220012384F851300023F0
:1051900084F8503003B0BDE8F0830220F4E7022029
:1051A000F2E70120F0E70120EEE70120ECE7032021
:1051B000EAE70320E8E70320E6E70220EAE7704792
:1051C00030B585B00446026851689368C3F3801017
:1051D00013F0400F05D113F0010F02D011F0400F72
:1051E00069D113F0020F02D011F0800F67D1C3F321
:1051F000401513F0200F03D110B913F4807F61D054
:1052000011F0200F5ED078B194F85100C0B203289D
:105210005AD0606D40F00400606500200090D068B6
:10522000009090680090009865B1606D40F00100BA
:1052300060650020029090680290106820F04000A5
:105240001060029A13F4807F09D0636D43F0080365
:1052500063650023039323689B680393039B636D3B
:10526000002B2FD02268536823F0E0035360012302
:1052700084F8513011F0030F2ED02268536823F0C8
:1052800003035360E36C4BB1154A1A65E06CFFF7FA
:1052900037F818B1636D43F040036365A36C8BB1BD
:1052A0000F4A1A65A06CFFF72BF858B1636D43F0F5
:1052B0004003636506E0236C2046984702E0636C78
:1052C0002046984705B030BD00230193D368019371
:1052D00093680193019BF5E72046FFF770FFF1E724
:1052E000E552000808B5806B0023C387C386FFF72B
:1052F00066FF08BD30B4036A23F001030362036A4A
:105300004268846924F0730C0C6844EA0C0423F0AE
:10531000020C8B6843EA0C03114DA84203D005F53B
:105320008065A84205D123F00803CD682B4323F004
:1053300004030B4DA84203D005F58065A84207D1B0
:1053400022F440724D6945EA020C8A6942EA0C0275
:10535000426084614A684263036230BC704700BFA8
:105360000000014030B4036A23F480730362036ACF
:105370004268C46924F0730C0C6844EA0C0523F4F9
:1053800000738C6843EA0423114CA04203D004F557
:105390008064A04206D123F40063CC6843EA04236E
:1053A00023F480630A4CA04203D004F58064A04239
:1053B00007D122F440524C6942EA04128C6942EA55
:1053C00004124260C5614A68C263036230BC704720
:1053D0000000014030B4036A23F480530362036A7F
:1053E0004468C26922F4E6420D6842EA052223F4C9
:1053F00000538D6843EA0533094DA84203D005F5F3
:105400008065A84204D124F480444D6944EA85149F
:105410004460C2614A680264036230BC704700BFE6
:105420000000014090F83D30DBB2012B37D1022360
:1054300080F83D300268D36843F00103D36003680D
:10544000194A934220D0B3F1804F1DD0A2F57C427F
:10545000934219D002F58062934215D002F5806222
:10546000934211D002F5784293420DD002F570526A
:10547000934209D0A2F59432934205D01A6842F0C3
:1054800001021A60002070479A6802F00702062A9B
:1054900007D01A6842F001021A600020704701200C
:1054A00070470020704700BF000001407047704700
:1054B00070477047704710B5044603681A6912F0C8
:1054C000020F11D0DA6812F0020F0DD06FF0020255
:1054D0001A610123037703689B6913F0030F70D0EF
:1054E000FFF7E6FF0023237723681A6912F0040F01
:1054F00012D0DA6812F0040F0ED06FF004021A61B5
:105500000223237723689B6913F4407F5FD02046F2
:10551000FFF7CEFF0023237723681A6912F0080FE4
:1055200012D0DA6812F0080F0ED06FF008021A617C
:10553000042323772368DB6913F0030F4ED0204642
:10554000FFF7B6FF0023237723681A6912F0100FC4
:1055500012D0DA6812F0100F0ED06FF010021A613C
:10556000082323772368DB6913F4407F3DD020466E
:10557000FFF79EFF0023237723681A6912F0010FBB
:1055800003D0DA6812F0010F36D123681A6912F0DD
:10559000800F03D0DA6812F0800F34D123681A69C3
:1055A00012F0400F03D0DA6812F0400F32D12368B6
:1055B0001A6912F0200F03D0DA6812F0200F30D1F0
:1055C00010BDFFF774FF2046FFF773FF8AE7204600
:1055D000FFF76DFF2046FFF76CFF9BE72046FFF7C4
:1055E00066FF2046FFF765FFACE72046FFF75FFF49
:1055F0002046FFF75EFFBDE76FF001021A6120460B
:10560000FBF738F9C1E76FF080021A61204600F01D
:1056100004FAC3E76FF040021A612046FFF74AFF21
:10562000C5E76FF020021A61204600F0F5F9C7E7E0
:105630000368304A904212D0B0F1804F0FD0A2F5EB
:105640007C4290420BD002F58062904207D002F576
:105650008062904203D002F57842904203D123F059
:1056600070034A681343234A90422AD0B0F1804F16
:1056700027D0A2F57C42904223D002F5806290426E
:105680001FD002F5806290421BD002F57842904212
:1056900017D002F57052904213D002F5806290420A
:1056A0000FD002F5806290420BD0A2F59832904262
:1056B00007D002F58062904203D002F580629042EA
:1056C00003D123F44073CA68134323F080034A696B
:1056D000134303608B68C3620B688362054B984277
:1056E00003D003F58063984201D10B690363012362
:1056F000436170470000014040B310B5044690F884
:105700003D30F3B1022384F83D30214651F8040BBB
:10571000FFF78EFF012384F8463084F83E3084F88A
:105720003F3084F8403084F8413084F8423084F8C7
:10573000433084F8443084F8453084F83D3000200C
:1057400010BD80F83C30FBF703FBDBE7012070471E
:1057500040B310B5044690F83D30F3B1022384F80D
:105760003D30214651F8040BFFF762FF012384F816
:10577000463084F83E3084F83F3084F8403084F876
:10578000413084F8423084F8433084F8443084F85F
:10579000453084F83D30002010BD80F83C30FFF7E4
:1057A00085FEDBE70120704730B4036A23F0100365
:1057B0000362036A4468826922F4E6420D6842EAA1
:1057C000052223F020038D6843EA0513114DA842FA
:1057D00003D005F58065A84206D123F08003CD688B
:1057E00043EA051323F040030A4DA84203D005F510
:1057F0008065A84207D124F440644D6944EA8504D9
:105800008D6944EA8504446082614A688263036268
:1058100030BC70470000014038B590F83C30012B97
:1058200066D004460D46012380F83C300C2A5AD835
:10583000DFE802F0075959591B595959305959593C
:1058400044000068FFF756FD2268936943F008039F
:1058500093612268936923F004039361226893693A
:1058600029690B43936100203EE00068FFF79CFF2D
:105870002268936943F4006393612268936923F477
:105880008063936122689369296943EA01239361E4
:10589000002029E00068FFF765FD2268D36943F026
:1058A0000803D3612268D36923F00403D36122681B
:1058B000D36929690B43D361002015E00068FFF725
:1058C00089FD2268D36943F40063D3612268D369F8
:1058D00023F48063D3612268D369296943EA0123F1
:1058E000D361002000E00120002384F83C3038BD63
:1058F0000220FCE701F01F014FF0010C0CFA01FC43
:10590000036A23EA0C030362036A8A4013430362B7
:105910007047000010B504460846002942D194F8AB
:105920003E30DBB2013B18BF0123002B6ED10028B3
:1059300051D1022384F83E30012201462068FFF74E
:10594000D9FF2368334A934203D002F58062934221
:1059500003D15A6C42F400425A6423682D4A9342A0
:1059600049D0B3F1804F46D0A2F57C42934242D059
:1059700002F5806293423ED002F5806293423AD0B3
:1059800002F57842934236D002F57052934232D0FB
:10599000A2F5943293422ED01A6842F001021A60A6
:1059A000002032E0042908D008290DD094F84130B5
:1059B000DBB2013B18BF0123B7E794F83F30DBB2FD
:1059C000013B18BF0123B0E794F84030DBB2013B44
:1059D00018BF0123A9E7042805D0082807D002230F
:1059E00084F84130A8E7022384F83F30A4E702237B
:1059F00084F84030A0E79A6802F00702062A07D030
:105A00001A6842F001021A60002010BD0120FCE774
:105A10000020FAE70000014070477047026802F179
:105A20000C0353E8003F23F490730C3242E800313A
:105A30000029F3D1026802F1140353E8003F23F078
:105A40000103143242E800310029F3D1036B012B2A
:105A500005D0202380F83E3000230363704702689E
:105A600002F10C0353E8003F23F010030C3242E82C
:105A700000310029F3D1ECE790F83D30DBB2212B67
:105A800001D0022070478368B3F5805F17D0036AA6
:105A90005A1C02621A7803685A60C38C9BB2013B9D
:105AA0009BB2C3844BB90268D36823F08003D360F0
:105AB0000268D36843F04003D36000207047036955
:105AC000002BE4D1036A1B880268C3F30803536008
:105AD000036A02330362E0E710B504460268136903
